:100000000C945D000C94D1020C94AA020C9485000F
:100010000C9485000C9485000C9485000C9485004C
:100020000C9485000C9485000C9485000C94F802C7
:100030000C9485000C9485000C9485000C9485002C
:100040000C9460020C9485000C9485000C9485003F
:100050000C9485000C9485000C9485000C9485000C
:100060000C9485000C9485000000000024002700FB
:100070002A0000000000250028002B0004040404CE
:100080000404040402020202020203030303030342
:10009000010204081020408001020408102001021F
:1000A00004081020000000080002010000030407FB
:1000B0000000000000000000430411241FBECFEF29
:1000C000D8E0DEBFCDBF21E0AEE0B1E001C01D92BF
:1000D000A937B207E1F711E0A0E0B1E0E6EDF8E002
:1000E00002C005900D92AE30B107D9F710E0CDE512
:1000F000D0E004C02197FE010E946304CC35D107F3
:10010000C9F70E94B9030C9469040C94000090E0B4
:10011000FC01EC55FF4F3491FC01E057FF4F249157
:10012000FC01E458FF4FE491EE2309F43BC0332374
:1001300039F1333091F038F43130A9F0323001F533
:1001400084B58F7D12C0373091F03830A1F0343053
:10015000B9F4809180008F7D03C0809180008F77FB
:10016000809380000DC084B58F7784BD09C08091D5
:10017000B0008F7703C08091B0008F7D8093B00076
:10018000F0E0EE0FFF1FEE58FF4FA591B4918FB72F
:10019000F894EC91611103C020952E2301C02E2B01
:1001A0002C938FBF0895CF93DF9390E0FC01E0572D
:1001B000FF4F2491FC01E458FF4F8491882361F1A3
:1001C00090E0880F991FFC01E859FF4FC591D49129
:1001D000FC01EE58FF4FA591B491611109C09FB782
:1001E000F8948881209582238883EC912E230BC07C
:1001F000623061F49FB7F8943881822F8095832311
:100200008883EC912E2B2C939FBF06C08FB7F89458
:10021000E8812E2B28838FBFDF91CF9108951F9304
:10022000CF93DF93EC01162F88818C3008F050C0FB
:1002300061E0812F0E94D3008881E82FF0E09F01C8
:10024000220F331FE20FF31FEB5AFE4F1F739081F3
:10025000907C192B108392E8998390E79A836CE045
:100260000E9457049CE0899FB001112440E050E0B7
:100270009A01260F371FF901EE0FFF1F2E0F3F1FA8
:10028000F901EB5AFE4F908196FD16C04F5F5F4F0C
:100290004C30510569F781110FC01092800082E047
:1002A000809381001092850010928400B19A809111
:1002B0006F00826080936F00E881F0E0CF01880FCB
:1002C000991FE80FF91FEB5AFE4F808180648083ED
:1002D0008881DF91CF911F9108953FB7F894809165
:1002E000420190914301A0914401B091450126B58E
:1002F000A89B05C02F3F19F00196A11DB11D3FBF5E
:10030000BA2FA92F982F8827820F911DA11DB11DEB
:10031000BC01CD0142E0660F771F881F991F4A95E7
:10032000D1F708950F931F93CF93209184003091BC
:100330008500C901A0E0B0E08093370190933801B7
:10034000A0933901B0933A01109285001092840075
:100350008C3F43E09407A105B10500F530933601C9
:1003600020933501C0913401C53040F4EC2FF0E00A
:10037000E85FFE4F61E080810E9487008FEF8C0F65
:10038000853008F07CC0EC2FF0E0E95FFE4F60E0C4
:100390008081CF911F910F910C9487008D3E2EE0AC
:1003A0009207A105B10558F1109234010E946D0128
:1003B00000913001109131012091320130913301CF
:1003C000DC01CB01801B910BA20BB30B893A914648
:1003D000A105B10548F060E088E00E9487008091A7
:1003E0002F018F5F80932F010E946D016093300178
:1003F00070933101809332019093330140C0C091DA
:100400003401EC2FF0E0EE0FFF1FE15FFE4F209173
:10041000350130913601820F931FA11DB11DB69594
:10042000A795979587959183808380912F01893730
:1004300068F080910E01811109C061E088E00E949E
:10044000870010922F0181E080930E0180912F018F
:10045000893760F080910E01813041F460E088E0DE
:100460000E94870010922F0110920E0181E08C0FE4
:100470008093340180912F018F5F80932F01CF9162
:100480001F910F9108950895FC0190913C019C30BB
:10049000A0F481E0890F80933C019083892F90E044
:1004A000FC01EE0FFF1F8E0F9F1FFC01EB5AFE4F4A
:1004B00088EB9BE09283818308958FEF808308957A
:1004C0001F920F920FB60F9211242F933F938F9389
:1004D0009F93AF93BF9380913E0190913F01A09174
:1004E0004001B091410130913D0123E0230F2D37B0
:1004F00020F40196A11DB11D05C026E8230F029628
:10050000A11DB11D20933D0180933E0190933F01B9
:10051000A0934001B0934101809142019091430129
:10052000A0914401B09145010196A11DB11D809398
:10053000420190934301A0934401B0934501BF91C0
:10054000AF919F918F913F912F910F900FBE0F9080
:100550001F9018951F920F920FB60F9211242F9390
:100560003F934F935F936F937F938F939F93AF933B
:10057000BF93EF93FF93E0910201F091030109957E
:10058000FF91EF91BF91AF919F918F917F916F916B
:100590005F914F913F912F910F900FBE0F901F9041
:1005A00018951F920F920FB60F9211242F933F931D
:1005B0004F935F936F937F938F939F93AF93BF936B
:1005C000EF93FF93E0910001F09101010995FF91F4
:1005D000EF91BF91AF919F918F917F916F915F91BB
:1005E0004F913F912F910F900FBE0F901F90189534
:1005F0001F920F920FB60F9211242F933F934F9398
:100600005F936F937F938F939F93AF93BF93EF937A
:10061000FF9380913B0187FF05C0109285001092E7
:1006200084001BC020913B01022E000C330B8091F3
:100630003C0190E02817390784F480913B01082E93
:10064000000C990BFC01EE0FFF1F8E0F9F1FFC018A
:10065000EB5AFE4F808186FD15C080913B018F5F74
:1006600080933B0120913B01022E000C330B8091C3
:100670003C0190E028173907C4F480913B018C308D
:1006800064F113C080913B01082E000C990BFC0112
:10069000EE0FFF1F8E0F9F1FFC01EB5AFE4F808154
:1006A00060E08F730E948700D8CF80918400909182
:1006B0008500049680349C4918F480E49CE905C0C8
:1006C0008091840090918500049690938900809396
:1006D00088008FEF80933B013BC0209184003091D4
:1006E000850080913B01082E000C990BFC01EE0F58
:1006F000FF1F8E0F9F1FFC01EB5AFE4F81819281DD
:10070000820F931F909389008093880080913B0112
:10071000082E000C990BFC01EE0FFF1F8E0F9F1F80
:10072000FC01EB5AFE4F808186FF12C080913B0195
:10073000082E000C990BFC01EE0FFF1F8E0F9F1F60
:10074000FC01EB5AFE4F808161E08F730E948700AD
:10075000FF91EF91BF91AF919F918F917F916F9199
:100760005F914F913F912F910F900FBE0F901F906F
:100770001895789484B5826084BD84B5816084BD09
:1007800085B5826085BD85B5816085BD80916E002F
:10079000816080936E001092810080918100826060
:1007A000809381008091810081608093810080919D
:1007B00080008160809380008091B100846080938C
:1007C000B1008091B00081608093B00080917A0088
:1007D000846080937A0080917A00826080937A00AE
:1007E00080917A00816080937A0080917A0080689D
:1007F00080937A001092C10063E070E082E591E09E
:100800000E940F0164E070E08FE491E00E940F010C
:1008100065E070E08CE491E00E940F0166E070E01A
:1008200089E491E00E940F0167E070E086E491E0C6
:100830000E940F0160E082E00E94D30082E991E013
:100840009093010180930001809169008C7F816009
:1008500080936900E89A61E088E00E94D30060E03C
:1008600088E00E94870010928000109281008091A1
:100870008100826080938100C0E0D0E02097F1F396
:100880000E940000FBCF82E591E00E9444028FE4C9
:1008900091E00E9444028CE491E00E94440289E4C9
:1008A00091E00E94440286E491E00C944402991B7A
:1008B00079E004C0991F961708F0961B881F7A9557
:1008C000C9F780950895EE0FFF1F0590F491E02D74
:0608D0000994F894FFCF2B
:0E08D600430243020100000003040506070070
:107E0000112484B714BE81FFF0D085E080938100F7
:107E100082E08093C00088E18093C10086E0809377
:107E2000C20080E18093C4008EE0C9D0259A86E02C
:107E300020E33CEF91E0309385002093840096BBD3
:107E4000B09BFECF1D9AA8958150A9F7CC24DD24C4
:107E500088248394B5E0AB2EA1E19A2EF3E0BF2EE7
:107E6000A2D0813461F49FD0082FAFD0023811F036
:107E7000013811F484E001C083E08DD089C08234E0
:107E800011F484E103C0853419F485E0A6D080C0E4
:107E9000853579F488D0E82EFF2485D0082F10E0AE
:107EA000102F00270E291F29000F111F8ED06801E7
:107EB0006FC0863521F484E090D080E0DECF843638
:107EC00009F040C070D06FD0082F6DD080E0C81688
:107ED00080E7D80618F4F601B7BEE895C0E0D1E017
:107EE00062D089930C17E1F7F0E0CF16F0E7DF06D8
:107EF00018F0F601B7BEE89568D007B600FCFDCFD4
:107F0000A601A0E0B1E02C9130E011968C91119780
:107F100090E0982F8827822B932B1296FA010C0160
:107F200087BEE89511244E5F5F4FF1E0A038BF0790
:107F300051F7F601A7BEE89507B600FCFDCF97BE46
:107F4000E89526C08437B1F42ED02DD0F82E2BD052
:107F50003CD0F601EF2C8F010F5F1F4F84911BD097
:107F6000EA94F801C1F70894C11CD11CFA94CF0C13
:107F7000D11C0EC0853739F428D08EE10CD085E9AC
:107F80000AD08FE07ACF813511F488E018D01DD067
:107F900080E101D065CF982F8091C00085FFFCCF94
:107FA0009093C60008958091C00087FFFCCF809118
:107FB000C00084FD01C0A8958091C6000895E0E648
:107FC000F0E098E1908380830895EDDF803219F02E
:107FD00088E0F5DFFFCF84E1DECF1F93182FE3DFCA
:107FE0001150E9F7F2DF1F91089580E0E8DFEE27F6
:047FF000FF270994CA
:027FFE00040479
:0400000300007E007B
:00000001FF
